:020000040800F2
:1000000000500020AD0B0008FD0B0008FD0B0008A0
:10001000FD0B0008FD0B0008FD0B000800000000B0
:10002000000000000000000000000000FD0B0008C0
:10003000FD0B000800000000FD0B0008FD0B000890
:10004000FD0B0008FD0B0008FD0B0008FD0B000870
:10005000FD0B0008FD0B0008FD0B0008FD0B000860
:10006000FD0B0008FD0B0008FD0B0008FD0B000850
:10007000FD0B0008FD0B0008FD0B0008FD0B000840
:10008000FD0B0008FD0B0008FD0B0008FD0B000830
:10009000FD0B0008FD0B0008FD0B0008FD0B000820
:1000A000FD0B0008FD0B0008FD0B0008FD0B000810
:1000B000FD0B0008FD0B0008FD0B0008FD0B000800
:1000C000FD0B0008FD0B0008FD0B0008FD0B0008F0
:1000D000FD0B0008FD0B0008FD0B0008FD0B0008E0
:1000E000FD0B0008FD0B000800000000FD0B0008E0
:1000F000FD0B0008FD0B0008FD0B0008FD0B0008C0
:10010000FD0B0008FD0B0008FD0B0008FD0B0008AF
:10011000FD0B0008FD0B0008FD0B0008FD0B00089F
:10012000FD0B0008FD0B0008FD0B0008FD0B00088F
:1001300010B5054C237833B9044B13B10448AFF321
:1001400000800123237010BD00000020000000008B
:10015000480C000808B5034B1BB103490348AFF333
:10016000008008BD0000000004000020480C0008CA
:1001700080F0004002E000BF81F0004142001FBF5C
:100180005FEA410392EA030F7FEA226C7FEA236C65
:100190006AD04FEA1262D2EB1363C1BFD21841405A
:1001A00048404140B8BF5B42192B88BF704710F0F0
:1001B000004F40F4000020F07F4018BF404211F093
:1001C000004F41F4000121F07F4118BF494292EAFB
:1001D000030F3FD0A2F1010241FA03FC10EB0C0027
:1001E000C3F1200301FA03F100F0004302D54942B4
:1001F00060EB4000B0F5000F13D3B0F1807F06D361
:1002000040084FEA310102F10102FE2A51D2B1F158
:10021000004F40EBC25008BF20F0010040EA03004D
:100220007047490040EB0000013A28BFB0F5000FCD
:10023000EDD2B0FA80FCACF1080CB2EB0C0200FA83
:100240000CF0AABF00EBC25052421843BCBFD040D2
:100250001843704792F0000F81F4000106BF80F44C
:1002600000000132013BB5E74FEA41037FEA226C0F
:1002700018BF7FEA236C21D092EA030F04D092F0DA
:10028000000F08BF0846704790EA010F1CBF00200E
:10029000704712F07F4F04D1400028BF40F000406B
:1002A000704712F100723CBF00F50000704700F08B
:1002B000004343F0FE4040F4000070477FEA2262B2
:1002C00016BF08467FEA23630146420206BF5FEA83
:1002D000412390EA010F40F4800070474FF0000383
:1002E00004E000BF10F0004348BF40425FEA000C4A
:1002F00008BF704743F0964301464FF000001CE0F2
:1003000050EA010208BF70474FF000030AE000BF47
:1003100050EA010208BF704711F0004302D5404285
:1003200061EB41015FEA010C02BF844601460020F7
:1003300043F0B64308BFA3F18053A3F50003BCFA12
:100340008CF2083AA3EBC25310DB01FA02FC6344BF
:1003500000FA02FCC2F12002BCF1004F20FA02F2C6
:1003600043EB020008BF20F00100704702F12002B9
:1003700001FA02FCC2F1200250EA4C0021FA02F21A
:1003800043EB020008BF20EADC7070474FF0FF0C1F
:100390001CEAD0521EBF1CEAD15392EA0C0F93EA1A
:1003A0000C0F6FD01A4480EA010C400218BF5FEABC
:1003B00041211ED04FF0006343EA501043EA51112F
:1003C000A0FB01310CF00040B1F5000F3EBF490029
:1003D00041EAD3715B0040EA010062F17F02FD2A2D
:1003E0001DD8B3F1004F40EBC25008BF20F0010010
:1003F000704790F0000F0CF0004C08BF49024CEA27
:10040000502040EA51207F3AC2BFD2F1FF0340EAB8
:10041000C250704740F400004FF00003013A5DDC29
:1004200012F1190FDCBF00F000407047C2F100026A
:10043000410021FA02F1C2F1200200FA02FC5FEA57
:10044000310040F1000053EA4C0308BF20EADC70A1
:10045000704792F0000F00F0004C02BF400010F413
:10046000000F013AF9D040EA0C0093F0000F01F0C0
:10047000004C02BF490011F4000F013BF9D041EAE2
:100480000C018FE70CEAD15392EA0C0F18BF93EAE4
:100490000C0F0AD030F0004C18BF31F0004CD8D10E
:1004A00080EA010000F00040704790F0000F17BF95
:1004B00090F0004F084691F0000F91F0004F14D0DB
:1004C00092EA0C0F01D142020FD193EA0C0F03D133
:1004D0004B0218BF084608D180EA010000F0004036
:1004E00040F0FE4040F40000704740F0FE4040F411
:1004F000400070474FF0FF0C1CEAD0521EBF1CEAB0
:10050000D15392EA0C0F93EA0C0F69D0A2EB0302CD
:1005100080EA010C49024FEA402037D04FF0805367
:1005200043EA111143EA10130CF000408B4238BF2C
:100530005B0042F17D024FF4000C8B4224BF5B1A3A
:1005400040EA0C00B3EB510F24BFA3EB510340EA88
:100550005C00B3EB910F24BFA3EB910340EA9C0036
:10056000B3EBD10F24BFA3EBD10340EADC001B01A6
:1005700018BF5FEA1C1CE0D1FD2A3FF650AF8B424A
:1005800040EBC25008BF20F0010070470CF0004C57
:100590004CEA50207F32C2BFD2F1FF0340EAC25082
:1005A000704740F400004FF00003013A37E792F043
:1005B000000F00F0004C02BF400010F4000F013AA1
:1005C000F9D040EA0C0093F0000F01F0004C02BF9C
:1005D000490011F4000F013BF9D041EA0C0195E705
:1005E0000CEAD15392EA0C0F08D142027FF47DAF9E
:1005F00093EA0C0F7FF470AF084676E793EA0C0F8E
:1006000004D14B023FF44CAF08466EE730F0004C8B
:1006100018BF31F0004CCAD130F000427FF45CAF1B
:1006200031F000437FF43CAF5FE700BF42000ED2E1
:10063000B2F1FE4F0BD34FF09E03B3EB126209D41D
:100640004FEA002343F0004323FA02F070474FF0D3
:100650000000704712F1610F01D1420202D14FF048
:10066000FF3070474FF00000704700BF80B485B086
:1006700000AF78600AE00023FB6003E000BFFB6886
:100680000133FB60FB68B3F5FA5FF7D37B685A1E52
:100690007A60002BEFD100BF00BF1437BD4680BC8D
:1006A0007047000080B500AF094B1B68084A43F053
:1006B000020313600220FFF7D9FF054B1B68044AB1
:1006C00023F0020313600220FFF7D0FF00BF80BDBC
:1006D0000C0C014080B582B000AF0346FB71074BA4
:1006E0001B68064A23F008031360054AFB79136070
:1006F000FFF7D8FF00BF0837BD4680BD0C0C014096
:100700000C08014080B582B000AF0346FB71074B77
:100710001B68064A43F008031360054AFB7913601F
:10072000FFF7C0FF00BF0837BD4680BD0C0C01407D
:100730000C08014080B582B000AF786007E07B68AC
:100740001B781846FFF7DEFF7B6801337B607B6810
:100750001B78002BF3D100BF00BF0837BD4680BD1A
:1007600080B500AF1420FFF781FF3020FFF7B2FF04
:100770000520FFF77BFF3020FFF7ACFF0120FFF7DC
:1007800075FF3020FFF7A6FF0120FFF76FFF38202D
:10079000FFF7A0FF0C20FFF79DFF0120FFF79AFF56
:1007A0000220FFF763FF0620FFF794FF00BF80BD24
:1007B00080B584B000AF78607868FFF737FF0346F4
:1007C000FB81FB891846FFF78DFD034619467868C3
:1007D000FFF7D2FC03461A491846FFF7D7FD034638
:1007E0001846FFF723FF0346BB81FB89DBB230339A
:1007F000DBB21846FFF786FF2E20FFF783FFBB8989
:10080000104AA2FB0323DB089BB2DBB23033DBB21E
:100810001846FFF777FFBA890A4BA3FB0213D908E2
:100820000B469B000B445B00D31A9BB2DBB2303308
:10083000DBB21846FFF766FF00BF1037BD4680BD2C
:100840000000C842CDCCCCCC80B500AF274B1B6894
:10085000264A23F00F031360254B1B68244A23F01C
:1008600007031360224B1B68214A43F00703136000
:10087000204B00221A60204B08221A601F4B1B6875
:100880001E4A43F0010313600120FFF7EFFE1B4BEC
:100890001B681A4A43F00803136000BF174B1B681C
:1008A00003F00803002BF9D1144B1B68134A43F0E3
:1008B0000403136000BF114B1B6803F00403002BFB
:1008C000F9D10E4B1B680D4A23F4602313600B4BC8
:1008D0001B680A4A43F460231360084B1B68074AED
:1008E00043F48013136000BF80BD00BF000C0140C3
:1008F000102401402C2401403424014008240140EC
:1009000080B582B000AF114B1B68104A43F48003DE
:10091000136000BF0E4B1B6803F00203002BF9D0DD
:100920000C4B1B68FB80FB881846FFF7D7FC03467F
:1009300009491846FFF72AFD034608491846FFF7FC
:10094000D9FD034618460837BD4680BD082401403E
:10095000002401404C2401403333534000F07F45D4
:1009600080B400AF0F4B1B680E4A23F0F0031360F6
:100970000C4B1B680B4A43F0B00313600A4B40F268
:1009800041321A60094B1B68084A43F40053136054
:10099000064B1B68054A43F00803136000BFBD46C1
:1009A00080BC704704080140083801400C38014001
:1009B00080B483B000AF0346FB7100BF064B1B68D9
:1009C00003F08003002BF9D0044AFB79136000BFC9
:1009D0000C37BD4680BC70470038014004380140E8
:1009E00080B582B000AF786007E07B681B7818465E
:1009F000FFF7DEFF7B6801337B607B681B78002B91
:100A0000F3D100BF00BF0837BD4680BD80B584B0BC
:100A100000AF78607868FFF709FE0346FB81FB8929
:100A20001846FFF75FFC034619467868FFF7A4FBFA
:100A300003461A491846FFF7A9FC03461846FFF774
:100A4000F5FD0346BB81FB89DBB23033DBB21846D0
:100A5000FFF7AEFF2E20FFF7ABFFBB89104AA2FBCA
:100A60000323DB089BB2DBB23033DBB21846FFF75F
:100A70009FFFBA890A4BA3FB0213D9080B469B00C0
:100A80000B445B00D31A9BB2DBB23033DBB21846A7
:100A9000FFF78EFF00BF1037BD4680BD0000C84283
:100AA000CDCCCCCC80B582B000AF364B1B68354A7C
:100AB00043F004031360334B1B68324A43F00803CE
:100AC0001360304B1B682F4A43F0010313602E4B19
:100AD0001B682D4A23F0E06313602B4B1B682A4AE6
:100AE00043F000731360294B4FF033321A60284BE8
:100AF0001B68274A1B0C1B041360254B1B68244AE8
:100B000043F4405343F030031360224B00221A6039
:100B1000214B1B68204A23F00A031360194B1B6802
:100B2000184A43F400731360164B1B68154A43F4CC
:100B300080431360FFF714FEFFF786FEFFF710FFF8
:100B4000FFF7DEFE78608020FFF7C4FD1348FFF753
:100B5000F1FDC020FFF7BEFD7868FFF729FE1048C1
:100B6000FFF7E8FD0F48FFF73BFF7868FFF74EFF00
:100B70000D48FFF735FF4FF49670FFF777FD00BF84
:100B8000DEE700BF181002400400014000080140E9
:100B9000000C01400C0801400C0C0140600C0008E6
:100BA000700C0008740C0008840C00080D48854681
:100BB000AFF300800C480D490D4A002302E0D458E1
:100BC000C4500433C4188C42F9D30A4A0A4C002397
:100BD00001E013600432A242FBD300F011F8FFF7EA
:100BE00061FFFEE700500020000000200000002010
:100BF000940C0008000000201C000020FEE700000C
:100C000070B500260C4D0D4B5B1B9C10A64209D104
:100C1000002600F019F80A4D0A4B5B1B9C10A642F7
:100C200005D170BD55F8043B98470136EEE755F8FD
:100C3000043B98470136F2E78C0C00088C0C000846
:100C40008C0C0008900C0008F8B500BFF8BC08BC7C
:100C50009E467047F8B500BFF8BC08BC9E4670477A
:100C600041444320564F4C544147453A0000000050
:100C70002056000041444320566F6C746167653A0A
:0C0C80002000000020560D0A00000000BB
:040C8C005501000806
:040C90003101000826
:0400000508000BAD37
:00000001FF
